{
  "_format": "hh-sol-artifact-1",
  "contractName": "Requests",
  "sourceName": "contracts/Requests.sol",
  "abi": [
    {
      "inputs": [
        {
          "internalType": "contract ERC20Votes",
          "name": "_token",
          "type": "address"
        }
      ],
      "stateMutability": "nonpayable",
      "type": "constructor"
    },
    {
      "inputs": [],
      "name": "approval",
      "outputs": [],
      "stateMutability": "nonpayable",
      "type": "function"
    },
    {
      "inputs": [],
      "name": "membership",
      "outputs": [],
      "stateMutability": "nonpayable",
      "type": "function"
    },
    {
      "inputs": [],
      "name": "owner",
      "outputs": [
        {
          "internalType": "address",
          "name": "",
          "type": "address"
        }
      ],
      "stateMutability": "view",
      "type": "function"
    }
  ],
  "bytecode": "0x6080604052336000806101000a81548173ffffffffffffffffffffffffffffffffffffffff021916908373ffffffffffffffffffffffffffffffffffffffff1602179055506001600255600160035534801561005a57600080fd5b50604051610985380380610985833981810160405281019061007c9190610138565b80600160006101000a81548173ffffffffffffffffffffffffffffffffffffffff021916908373ffffffffffffffffffffffffffffffffffffffff16021790555050610165565b600080fd5b600073ffffffffffffffffffffffffffffffffffffffff82169050919050565b60006100f3826100c8565b9050919050565b6000610105826100e8565b9050919050565b610115816100fa565b811461012057600080fd5b50565b6000815190506101328161010c565b92915050565b60006020828403121561014e5761014d6100c3565b5b600061015c84828501610123565b91505092915050565b610811806101746000396000f3fe608060405234801561001057600080fd5b50600436106100415760003560e01c806339788bc8146100465780638da5cb5b14610050578063a2bf68b91461006e575b600080fd5b61004e610078565b005b61005861043b565b604051610065919061050e565b60405180910390f35b61007661045f565b005b60008054906101000a900473ffffffffffffffffffffffffffffffffffffffff1673ffffffffffffffffffffffffffffffffffffffff163373ffffffffffffffffffffffffffffffffffffffff1614610106576040517f08c379a00000000000000000000000000000000000000000000000000000000081526004016100fd906105ac565b60405180910390fd5b600160009054906101000a900473ffffffffffffffffffffffffffffffffffffffff1673ffffffffffffffffffffffffffffffffffffffff1663095ea7b33060646040518363ffffffff1660e01b815260040161016492919061061b565b602060405180830381600087803b15801561017e57600080fd5b505af1158015610192573d6000803e3d6000fd5b505050506040513d601f19601f820116820180604052508101906101b69190610681565b50600073ffffffffffffffffffffffffffffffffffffffff1660046000600354815260200190815260200160002060009054906101000a900473ffffffffffffffffffffffffffffffffffffffff1673ffffffffffffffffffffffffffffffffffffffff161415801561022d575060025460035411155b1561043957600160009054906101000a900473ffffffffffffffffffffffffffffffffffffffff1673ffffffffffffffffffffffffffffffffffffffff166323b872dd333060646040518463ffffffff1660e01b8152600401610292939291906106ae565b602060405180830381600087803b1580156102ac57600080fd5b505af11580156102c0573d6000803e3d6000fd5b505050506040513d601f19601f820116820180604052508101906102e49190610681565b50600160009054906101000a900473ffffffffffffffffffffffffffffffffffffffff1673ffffffffffffffffffffffffffffffffffffffff1663a9059cbb60046000600354815260200190815260200160002060009054906101000a900473ffffffffffffffffffffffffffffffffffffffff1660646040518363ffffffff1660e01b815260040161037892919061073a565b602060405180830381600087803b15801561039257600080fd5b505af11580156103a6573d6000803e3d6000fd5b505050506040513d601f19601f820116820180604052508101906103ca9190610681565b50600060046000600354815260200190815260200160002060006101000a81548173ffffffffffffffffffffffffffffffffffffffff021916908373ffffffffffffffffffffffffffffffffffffffff1602179055506003600081548092919061043390610792565b91905055505b565b60008054906101000a900473ffffffffffffffffffffffffffffffffffffffff1681565b3360046000600254815260200190815260200160002060006101000a81548173ffffffffffffffffffffffffffffffffffffffff021916908373ffffffffffffffffffffffffffffffffffffffff160217905550600260008154809291906104c690610792565b9190505550565b600073ffffffffffffffffffffffffffffffffffffffff82169050919050565b60006104f8826104cd565b9050919050565b610508816104ed565b82525050565b600060208201905061052360008301846104ff565b92915050565b600082825260208201905092915050565b7f546869732066756e6374696f6e206973207265737472696374656420746f207460008201527f686520636f6e74726163742773206f776e657200000000000000000000000000602082015250565b6000610596603383610529565b91506105a18261053a565b604082019050919050565b600060208201905081810360008301526105c581610589565b9050919050565b6000819050919050565b6000819050919050565b6000819050919050565b60006106056106006105fb846105cc565b6105e0565b6105d6565b9050919050565b610615816105ea565b82525050565b600060408201905061063060008301856104ff565b61063d602083018461060c565b9392505050565b600080fd5b60008115159050919050565b61065e81610649565b811461066957600080fd5b50565b60008151905061067b81610655565b92915050565b60006020828403121561069757610696610644565b5b60006106a58482850161066c565b91505092915050565b60006060820190506106c360008301866104ff565b6106d060208301856104ff565b6106dd604083018461060c565b949350505050565b60006107006106fb6106f6846104cd565b6105e0565b6104cd565b9050919050565b6000610712826106e5565b9050919050565b600061072482610707565b9050919050565b61073481610719565b82525050565b600060408201905061074f600083018561072b565b61075c602083018461060c565b9392505050565b7f4e487b7100000000000000000000000000000000000000000000000000000000600052601160045260246000fd5b600061079d826105d6565b91507fffffffffffffffffffffffffffffffffffffffffffffffffffffffffffffffff8214156107d0576107cf610763565b5b60018201905091905056fea2646970667358221220e966adea73058b36c58bc1f97182ec0285305eb8ba1f4dfc7134ef67056a15f664736f6c63430008090033",
  "linkReferences": {},
  "deployedLinkReferences": {}
}